:020000040800F2
:100000003009002439030008B9550008615200087E
:10001000B5550008370500084568000800000000D5
:10002000000000000000000000000000A3580008CD
:100030005909000800000000BD550008A558000837
:100040005703000857030008570300085703000828
:100050005703000857030008570300085703000818
:100060005703000857030008570300083D05000820
:100070004D05000857030008570300085703000800
:1000800057030008570300085703000857030008E8
:1000900057030008570300085703000857030008D8
:1000A00057030008570300085703000857030008C8
:1000B00057030008570300085703000857030008B8
:1000C00057030008570300085703000857030008A8
:1000D0005703000857030008570300085703000898
:1000E00057030008570300080000000057030008EA
:1000F0005703000857030008570300085703000878
:100100005703000857030008570300085703000867
:100110005703000857030008570300085703000857
:100120005703000857030008570300085703000847
:100130005703000857030008570300085703000837
:1001400000000000000000000000000000000000AF
:100150005703000857030008570300085703000817
:100160005703000857030008570300085703000807
:1001700057030008570300085703000857030008F7
:1001800057030008570300085703000857030008E7
:1001900057030008570300085703000857030008D7
:1001A00057030008570300085703000857030008C7
:1001B00057030008570300085703000857030008B7
:1001C00057030008570300085703000857030008A7
:1001D00057030008570300085D050008570300088F
:1001E0005703000857030008570300085703000887
:1001F0005703000857030008570300085703000877
:100200005703000857030008570300085703000866
:100210005703000857030008570300085703000856
:1002200057030008570300085703000800000000A8
:100230005703000857030008000000005703000898
:100240005703000857030008570300085703000826
:100250005703000857030008570300085703000816
:100260005703000857030008570300085703000806
:100270005703000857030008570300080000000058
:100280005703000857030008570300080000000048
:10029000000000005703000800F002F800F03CF8EE
:1002A0000AA090E8000C82448344AAF10107DA45D1
:1002B00001D100F031F8AFF2090EBAE80F0013F0E7
:1002C000010F18BFFB1A43F001031847B066000086
:1002D000D0660000103A24BF78C878C1FAD8520717
:1002E00024BF30C830C144BF04680C6070470000B0
:1002F0000023002400250026103A28BF78C1FBD82F
:10030000520728BF30C148BF0B6070471FB506F0C9
:100310000FFB1FBD10B510BD00F0D3F81146FFF75D
:10032000F5FF06F0ADFA00F0F1F803B4FFF7F2FFC5
:1003300003BC00F0F9F800000A4880470A488047EB
:100340000A480047FEE7FEE7FEE7FEE7FEE7FEE7B6
:10035000FEE7FEE7FEE7FEE705480649064A074BCB
:1003600070470000610900088159000899020008DF
:100370003003002430090024300500243005002417
:1003800053EA020C00F069802DE9F04B4FF00006B3
:10039000002B1FBFB3FA83F503FA05F424FA05F620
:1003A0005E4012BF1643B2FA82F502FA05F4C5F1B7
:1003B00020051EBF22FA05FC44EA0C04203556EA4B
:1003C000044C4FEA144418BF641C4FF000084FF06F
:1003D0000009904271EB030C39D3002919BFB1FA1F
:1003E00081F701FA07F6B0FA80F700FA07F6C7F1CD
:1003F00020071EBF20FA07FC46EA0C062037B6FB92
:10040000F4FCA7EB0507103F07F01F0BCBF120060C
:100410000CFA0BFB2CFA06F644BFB3460026202F3D
:10042000A4BF5E464FF0000B5BEA060C08BF4FF01E
:10043000010B19EB0B09ABFB027C48EB0608C01B58
:1004400006FB02CC0BFB03CC71EB0C01C1E70B46A6
:10045000024641464846BDE8F08B13B54FF0000018
:100460004FF00001AFF30080BDE81C4070474FF033
:10047000000200B5134694469646203922BFA0E8F4
:100480000C50A0E80C50B1F12001BFF4F7AF090700
:1004900028BFA0E80C5048BF0CC05DF804EB8900F1
:1004A00028BF40F8042B08BF704748BF20F8022B34
:1004B00011F0804F18BF00F8012B7047704770474C
:1004C0007047754600F02CF8AE4605006946534665
:1004D00020F00700854618B020B5FFF73DFFBDE8C6
:1004E00020404FF000064FF000074FF000084FF09B
:1004F000000B21F00701AC46ACE8C009ACE8C0092C
:10050000ACE8C009ACE8C0098D46704710B5044698
:10051000AFF300802046BDE81040FFF706BF0000A3
:1005200000487047D002002401491820ABBEFEE706
:1005300026000200704700BFFEE7000010B5024829
:1005400000F084FD10BD00004C01002410B50248ED
:1005500000F07CFD10BD00005802002410B50348D7
:1005600000F0A4FA024800F0A1FA10BD4C010024EA
:10057000580200240146374A0868904249D0354A5B
:1005800018320868904244D0324A303208689042AB
:100590003FD0304A4832086890423AD02D4A603203
:1005A0000868904235D02B4A78320868904230D0A3
:1005B000284A9032086890422BD0264AA832086810
:1005C000904226D0244A0868904222D0224A18320B
:1005D000086890421DD0204A30320868904218D0F6
:1005E0001D4A48320868904213D01B4A603208689E
:1005F00090420ED0184A78320868904209D0164AC4
:1006000090320868904204D0134AA8320868904299
:1006100001D1012000E00020B0B10A78103A18237F
:10062000B2FBF3F000F007020C4B9A5CCA6503289A
:1006300005D90A686FF30902121D8A6503E00A688A
:100640006FF309028A6503E0086820F0FF008865FF
:10065000886D704710000240100402403A6900089B
:1006600010B502682B4C0368A34222D0294C1434E5
:100670000368A3421DD0274C28340368A34218D036
:10068000244C3C340368A34213D0224C50340368FA
:10069000A3420ED01F4C64340368A34209D01D4C02
:1006A00078340368A34204D01A4C8C340368A34204
:1006B00001D1012300E000238BB10378083B14240F
:1006C000B3FBF4F1144B03EB81030366124B80334D
:1006D000436601F01F040123A340836618E00378FA
:1006E000103B1824B3FBF4F10C4B9A4204D80B4B8B
:1006F000A83B9A4200D30831094B03EB8103036600
:10070000074B8033436601F01F040123A340836637
:1007100010BD00000854025800580258B8040240A6
:10072000000802400179A9B3082940D8204B02688B
:100730009A4222D01E4B143302689A421DD01C4BA1
:10074000283302689A4218D0194B3C3302689A4207
:1007500013D0174B503302689A420ED0144B6433B7
:1007600002689A4209D0124B783302689A4204D048
:100770000F4B8C3302689A4201D1012200E0002223
:100780004AB14A1E0B4B03EB8202C266094A403251
:10079000026708E00BE04A1E074B03EB8202C266C9
:1007A000054A403202674A1E01239340436770475F
:1007B000085402580059025800090240014600201E
:1007C0008A69D2B98A6A32B1012A0DD0022A03D0CD
:1007D000032A10D10EE000BFCA6A02F08072B2F1A3
:1007E000807F00D1012007E0CA6AB2F1C07F00D14A
:1007F000012001E000E000BF36E08A69B2F5005F49
:100800001BD18A6A32B1012A07D0022A03D0032AF7
:1008100011D10AE000BF01200EE0CA6A02F0807226
:10082000B2F1807F00D1012006E0CA6AB2F1C07F38
:1008300000D1012000E000BF16E08A6A32B1012A2F
:1008400005D0022A04D0032A0CD103E000BF00BF68
:10085000012008E0CA6A02F08072B2F1807F00D104
:10086000012000E000BF00BF7047000030B5384DE8
:100870000468AC4249D0364D18350468AC4244D0C7
:10088000334D30350468AC423FD0314D48350468B3
:10089000AC423AD02E4D60350468AC4235D02C4D78
:1008A00078350468AC4230D0294D90350468AC42AC
:1008B0002BD0274DA8350468AC4226D0254D0468BE
:1008C000AC4222D0234D18350468AC421DD0214DD6
:1008D00030350468AC4218D01E4D48350468AC422F
:1008E00013D01C4D60350468AC420ED0194D7835DC
:1008F0000468AC4209D0174D90350468AC4204D06E
:10090000144DA8350468AC4201D1012400E0002454
:1009100074B1046863608468402C04D10468A260E8
:100920000468E16012E00468A1600468E2600DE020
:10093000046863608468402C04D10468A260046881
:10094000E16003E00468A1600468E26030BD00007B
:100950001000024010040240704772B600BFFEE76C
:100960000748006840F002000549086000BF0448DD
:100970000838006800F400500028F8D070470000E4
:100980000C48025830B5024600230024087A01289A
:1009900055D1444D1068A84249D0424D18351068D1
:1009A000A84244D03F4D30351068A8423FD03D4D5D
:1009B00048351068A8423AD03A4D60351068A842D0
:1009C00035D0384D78351068A84230D0354D903547
:1009D0001068A8422BD0334DA8351068A84226D005
:1009E000314D1068A84222D02F4D18351068A8420A
:1009F0001DD02D4D30351068A84218D02A4D4835ED
:100A00001068A84213D0284D60351068A8420ED057
:100A1000254D78351068A84209D0234D90351068CF
:100A2000A84204D0204DA8351068A84201D1012069
:100A300000E0002000B100E000BF0B684C6892F8B5
:100A40003500012828D100BF92F83400012801D1D7
:100A5000022030BD012082F8340000BF106E006813
:100A600020F48130156E28601D068889401E45EAF5
:100A7000C04020430D7A40EA05404D7A40EA4520C7
:100A8000156E2D68EDB22843156E286000BF00205A
:100A900082F8340000BFDCE74FF4006050650120AD
:100AA000D7E70000100002401004024010B50446D1
:100AB000606E0068A16E084088B1206E006820F466
:100AC0008070216E0860D4E919104860606D40F4B0
:100AD00000706065E06C10B12046E16C8847E06E04
:100AE000B0B1206F0068616F084088B1E06E0068A7
:100AF00020F48070E16E0860D4E91C104860606DDD
:100B000040F480606065E06C10B12046E16C88477D
:100B100010BD00002DE9F04704460F4690461E46E2
:100B2000DDF820904FF0000AA068802804D1400032
:100B300060650120BDE8F08700BF94F8340001280B
:100B400001D10220F6E7012084F8340000BF94F8B8
:100B5000350001287ED1022084F835000020606530
:100B6000F9492068884249D0F749183120688842FD
:100B700044D0F5493031206888423FD0F2494831AD
:100B8000206888423AD0F04960312068884235D0E8
:100B9000ED4978312068884230D0EB4990312068A7
:100BA00088422BD0E849A8312068884226D0E749FE
:100BB0002068884222D0E5491831206888421DD03B
:100BC000E24930312068884218D0E0494831206835
:100BD000884213D0DD496031206888420ED0DB495D
:100BE00078312068884209D0D849903120688842FD
:100BF00004D0D649A8312068884201D1012000E004
:100C0000002090B12068006840F4802021680860CE
:100C100020680661A06D00F1080594F85C0000F002
:100C20001F013F208840286011E02068006848F2DA
:100C3000200108432168086020680661A06D051D39
:100C400094F85C0000F01F010120884028604B46AA
:100C5000424600E0EFE139462046FFF707FEBA4979
:100C60002068884270D0B8491831206888426BD01B
:100C7000B54930312068884266D0B3494831206890
:100C8000884261D0B0496031206888425CD0AE496A
:100C900078312068884257D0AB499031206888422B
:100CA00052D0A949A831206888424DD0A749206870
:100CB000884249D0A54918312068884244D0A349C8
:100CC0003031206888423FD0A049483120688842AE
:100CD0003AD09E4960312068884235D09B497831AE
:100CE0002068884230D099499031206888422BD0C2
:100CF0009649A8312068884226D0954920688842C4
:100D000022D093491431206888421DD0904928315F
:100D10002068884218D08E493C312068884213D020
:100D20008B495031206888420ED08949643120684F
:100D3000884209D0864978312068884204D08449A5
:100D40008C312068884201D1012000E0002038B1B8
:100D5000D4E919104860E06E10B1D4E91C10486065
:100D600079492068884249D07749183120688842FB
:100D700044D075493031206888423FD072494831AB
:100D8000206888423AD0704960312068884235D066
:100D90006D4978312068884230D06B4990312068A5
:100DA00088422BD06849A8312068884226D06749FC
:100DB0002068884222D065491831206888421DD0B9
:100DC000624930312068884218D060494831206833
:100DD000884213D05D496031206888420ED05B495B
:100DE00078312068884209D058499031206888427B
:100DF00004D05649A8312068884201D1012000E082
:100E00000020C0B12068006820F01E0040F01600ED
:100E1000216808602068406940F0800021684861CE
:100E2000206C08B9A06CC0B12068006840F00800D0
:100E30002168086011E02068006820F00E0040F092
:100E40000A0021680860206C08B9A06C28B12068ED
:100E5000006840F00400216808603B49206888422F
:100E600070D039491831206888426BD0364930310A
:100E70002068884266D0344948312068884261D071
:100E800031496031206888425CD02F497831206830
:100E9000884257D02C4990312068884252D02A4944
:100EA000A831206888424DD028492068884249D01E
:100EB000264918312068884244D0244930312068BE
:100EC00088423FD021494831206888423AD01F49A2
:100ED00060312068884235D01C49783120688842CA
:100EE00030D01A499031206888422BD01749A83158
:100EF0002068884226D016492068884222D01449AA
:100F00001431206888421DD0114928312068884258
:100F100018D00F493C312068884213D00C49503119
:100F2000206888420ED00A4964312068884209D07E
:100F3000074978312068884204D005498C312068FF
:100F4000884207D1012006E0100002401004024050
:100F500008540258002090B1206E006800F48030E0
:100F600028B1206E006840F48070216E0860E06E49
:100F700028B1E06E006840F48070E16E086031498D
:100F80002068884249D02F4918312068884244D0CF
:100F90002C493031206888423FD02A4948312068A6
:100FA00088423AD0274960312068884235D02549A7
:100FB00078312068884230D02249903120688842B8
:100FC0002BD02049A8312068884226D01E492068AD
:100FD000884222D01C491831206888421DD01A4905
:100FE00030312068884218D017494831206888423B
:100FF00013D015496031206888420ED012497831EB
:101000002068884209D0104990312068884204D075
:101010000D49A8312068884206D12068006840F058
:101020000100216808600BE02068006840F00100C2
:101030002168086004E04FF4006060654FF0010A29
:10104000504677E510000240100402402DE9F84FA9
:10105000044600200090FE4800684FF41651B0FB93
:10106000F1FAA66DD4F858803768D8F80090F9499D
:101070002068884249D0F74918312068884244D016
:10108000F4493031206888423FD0F2494831206825
:1010900088423AD0EF4960312068884235D0ED4926
:1010A00078312068884230D0EA49903120688842FF
:1010B0002BD0E849A8312068884226D0E64920682C
:1010C000884222D0E4491831206888421DD0E24984
:1010D00030312068884218D0DF4948312068884282
:1010E00013D0DD496031206888420ED0DA4978316A
:1010F0002068884209D0D84990312068884204D0BD
:10110000D549A8312068884201D1012000E00020A3
:1011100000287DD094F85C0000F01F010820884072
:101120003840002868D0CB492068884249D0C94956
:1011300018312068884244D0C6493031206888423E
:101140003FD0C4494831206888423AD0C149603113
:101150002068884235D0BF4978312068884230D035
:10116000BC499031206888422BD0BA49A831206808
:10117000884226D0B8492068884222D0B649183122
:10118000206888421DD0B44930312068884218D088
:10119000B14948312068884213D0AF496031206896
:1011A00088420ED0AC4978312068884209D0AA49DB
:1011B00090312068884204D0A749A831206888422D
:1011C00004D12068006800F0040003E02068006893
:1011D00000F0080080B12068006820F00400216859
:1011E000086094F85C0000F01F0108208840B0609F
:1011F000606D40F00100606594F85C0000F01F0134
:10120000012088403840E8B392492068884200E0D5
:10121000B7E24BD08F4918312068884246D08D49BB
:1012200030312068884241D08A494831206888425C
:101230003CD0884960312068884237D08549783170
:101240002068884232D083499031206888422DD06E
:101250008049A8312068884228D07F492068884288
:1012600024D07D491831206888421FD07A49303116
:10127000206888421AD0784948312068884215D0C1
:10128000754900E026E06031206888420ED072493E
:1012900078312068884209D06F49903120688842AF
:1012A00004D06D49A8312068884204D12068406983
:1012B00000F0800002E020680068002050B194F83F
:1012C0005C0000F01F0101208840B060606D40F0BC
:1012D0000200606594F85C0000F01F010420884063
:1012E0003840E8B35B49206888424BD059491831EF
:1012F0002068884246D0574930312068884241D022
:1013000054494831206888423CD0524960312068B5
:10131000884237D04F4978312068884232D04D49D1
:101320009031206888422DD04A49A83120688842EF
:1013300028D049492068884224D04749183120687C
:1013400088421FD044493031206888421AD042492F
:1013500048312068884215D03F496031206800E05C
:1013600024E088420ED03C4978312068884209D078
:10137000394990312068884204D03749A831206823
:10138000884204D12068006800F0020002E0206872
:101390000068002050B194F85C0000F01F010420A8
:1013A0008840B060606D40F00400606594F85C00B7
:1013B00000F01F01102088403840E8B3254920681C
:1013C000884251D023491831206888424CD02149A5
:1013D00030312068884247D01E4948312068884211
:1013E00042D01C496031206888423DD0194978318B
:1013F0002068884238D0174990312068884233D01D
:101400001449A831206888422ED0134920688842A8
:101410002AD0114918312068884225D00E49303130
:101420002068884220D00C494831206888421BD06F
:1014300009496031206800E04DE0884214D0064937
:101440007831206888420FD003499031206805E048
:10145000380000241000024010040240884203D0EB
:10146000FE492068884204D12068006800F0080026
:1014700003E02068006800F0040060B394F85C00AA
:1014800000F01F0110208840B0602068006800F460
:10149000802080B12068006800F4002028B9206C0A
:1014A000C8B12046216C884715E0A06C98B1204651
:1014B000A16C88470FE02068006800F4807028B9AC
:1014C0002068006820F0080021680860206C10B1D6
:1014D0002046216C884794F85C0000F01F01202012
:1014E0008840384000287DD0DD492068884249D0B6
:1014F000DB4918312068884244D0D949303120680E
:1015000088423FD0D6494831206888423AD0D449F1
:1015100060312068884235D0D149783120688842CE
:1015200030D0CF499031206888422BD0CC49A831A7
:101530002068884226D0C949A8392068884221D02D
:10154000C6499039206888421CD0C449783920683F
:10155000884217D0C14960392068884212D0BF49FB
:101560004839206888420DD0BC493039206888420B
:1015700008D0BA4918392068884203D0B749206892
:10158000884204D12068006800F0100003E0206861
:10159000006800F0020028B394F85C0000F01F011E
:1015A00020208840B06094F8350004282DD12068B0
:1015B000006820F01600216808602068406920F06B
:1015C000800021684861206C08B9A06C28B12068AF
:1015D000006820F008002168086094F85C0000F0C2
:1015E0001F0100E03FE03F208840B060012084F808
:1015F000350000BF002084F8340000BF206D10B11A
:101600002046216D8847BDE8F88F2068006800F407
:10161000802080B12068006800F4002028B9606C48
:1016200008B32046616C88471DE0E06BD8B12046C6
:10163000E16B884717E02068006800F4807068B9A3
:101640002068006820F0100021680860012084F8FC
:10165000350000BF002084F8340000BFE06B10B1FB
:101660002046E16B8847606D00287AD0606D00F0FD
:101670000100E8B3042084F83500794920688842E5
:101680004BD0774918312068884246D074493031B0
:101690002068884241D072494831206888423CD055
:1016A0006F4960312068884237D06D4978312068B1
:1016B000884232D06A499031206888422DD06849EA
:1016C000A8312068884228D06449A8392068884217
:1016D00023D062499039206888421ED05F4978390A
:1016E0002068884219D05D4960392068884200E04E
:1016F00040E012D059494839206888420DD05749F6
:1017000030392068884208D0544918392068884206
:1017100003D052492068884206D12068006820F032
:1017200001002168086005E02068006820F00100E1
:101730002168086000BF0098401C0090504500D907
:1017400005E02068006800F001000028F3D100BF28
:101750002068006800F0010020B1032084F8350003
:1017600003E00DE0012084F8350000BF002084F87C
:10177000340000BFE06C002802D02046E16C8847AE
:10178000D9E138492068884222D03649143120688E
:1017900088421DD0334928312068884218D0314909
:1017A0003C312068884213D02E495031206888424D
:1017B0000ED02C4964312068884209D029497831FB
:1017C0002068884204D027498C312068884201D1A2
:1017D000012000E000200028D2D02068056894F89D
:1017E0005C0000F01F010420884000EA0900D8B323
:1017F00005F00400C0B394F85C0000F01F01042061
:101800008840C8F8040005F4004080B105F4803039
:1018100030B9A06C0028B3D02046A16C88478AE17B
:10182000206C0028ACD02046216C884783E105F06D
:101830002000E8BB0A492068884253D00849183183
:10184000206888424ED0064930312068884249D00D
:10185000034948312068884244D006E0B804024079
:1018600010000240085402584FE0B449603120682B
:10187000884237D0B14978312068884232D0AF49A8
:101880009031206888422DD0AC49A8312068884228
:1018900028D0AB492068884224D0A9491831206853
:1018A00088421FD0A6493031206888421AD000E013
:1018B00025E0A34948312068884213D0A04960310F
:1018C000206888420ED09E4978312068884209D02D
:1018D0009B4990312068884204D09949A8312068FA
:1018E000884206D12068006820F00800216808605E
:1018F00005E02068006820F0040021680860206C82
:1019000010B32046216C884715E194F85C0000F084
:101910001F010220884000EA0900E8B305F0020038
:10192000D0B394F85C0000F01F0102208840C8F892
:10193000040005F4004070B105F4803028B9606CF3
:1019400010B12046616C8847F5E0E06BF0B32046AB
:10195000E16B8847EFE005F02000C0BB77492068C5
:1019600088424ED0754918312068884249D0734961
:1019700030312068884244D070494831206888421C
:101980003FD06E496031206888423AD06B49783147
:101990002068884235D000E04EE0684990312068E8
:1019A00088422ED06549A8312068884229D06449F0
:1019B0002068884225D0624918312068884220D0AA
:1019C0005F493031206888421BD001E06EE02DE095
:1019D0005B4948312068884213D0594960312068FA
:1019E00088420ED0564978312068884209D054493F
:1019F00090312068884204D05149A831206888423B
:101A000006D12068006820F014002168086005E015
:101A10002068006820F00A0021680860012084F82E
:101A2000350000BF002084F8340000BFE06BE8B34D
:101A30002046E16B88477EE094F85C0000F01F01CF
:101A40000820884000EA090080B305F0080068B368
:101A50003A49206888424BD038491831206888427A
:101A600046D0364930312068884241D03349483128
:101A7000206888423CD0314960312068884237D0A4
:101A80002E4978312068884232D02C499031206824
:101A900088422DD02949A8312068884228D0284979
:101AA0002068884224D02649183100E043E02068AD
:101AB00088421DD0224930312068884218D0204900
:101AC00048312068884213D01D496031206888421F
:101AD0000ED01B4978312068884209D018499031CE
:101AE0002068884204D01649A8312068884206D16F
:101AF0002068006820F01C002168086005E020686C
:101B0000006820F00E002168086094F85C0000F086
:101B10001F0101208840C8F804000120606584F896
:101B2000350000BF002084F8340000BFE06C10B125
:101B30002046E16C884700BF65E5000010000240C8
:101B4000100402402DE9F041044600F0A9FB804654
:101B500014B90120BDE8F081FE492068884249D0CF
:101B6000FC4918312068884244D0FA493031206855
:101B700088423FD0F7494831206888423AD0F54939
:101B800060312068884235D0F24978312068884237
:101B900030D0F0499031206888422BD0ED49A831EF
:101BA0002068884226D0EC492068884222D0EA4941
:101BB0001831206888421DD0E749303120688842BA
:101BC00018D0E54948312068884213D0E249603195
:101BD000206888420ED0E04978312068884209D0D8
:101BE000DD4990312068884204D0DB49A831206863
:101BF000884201D1012000E00020002873D0606AF3
:101C000000B100BF022084F8350000BF002084F836
:101C1000340000BFCF492068884249D0CD491831EF
:101C20002068884244D0CB493031206888423FD078
:101C3000C8494831206888423AD0C6496031206896
:101C4000884235D0C34978312068884230D0C149B4
:101C50009031206888422BD0BE49A8312068884244
:101C600026D0BD492068884222D0BB49183120685F
:101C700088421DD0B84930312068884218D0B64912
:101C800048312068884213D0B349603120688842C7
:101C90000ED0B14978312068884209D0AE499031E0
:101CA0002068884204D0AC49A8312068884206D117
:101CB0002068006820F001002168086005E02068C5
:101CC000006820F00100216808600DE000F0E8FAEB
:101CD000A0EB0800052807D920206065032084F8C0
:101CE0003500012036E76AE02068006800F0010056
:101CF0000028EBD12068056898480540D4E9020126
:101D000008432169084361690843A1690843E169FF
:101D10000843216A08430543606A042803D1D4E9D3
:101D20000B01084305438E4800686FF30F00B0F1C4
:101D3000005F1DD36068292802D360682E2811D95E
:101D400060683F2802D3606842280BD96068472842
:101D500002D36068482805D960684F2804D36068BA
:101D6000522801D8012000E0002008B145F4801578
:101D7000206805602068456925F00705606A05430D
:101D8000606A04280DD1A06A0543E06A48B1204684
:101D9000FEF714FD28B140206065012084F835006D
:101DA000D8E6206845612046FEF7E4FB064694F835
:101DB0005C0000F01F013F208840B0609EE0694950
:101DC0002068884222D067491431206888421DD09B
:101DD000644928312068884218D062493C31206823
:101DE000884213D05F495031206888420ED05D4947
:101DF00064312068884209D05A4978312068884285
:101E000004D058498C312068884201D1012000E07B
:101E10000020E0B353492068884222D05149143150
:101E2000206888421DD04F4928312068884218D048
:101E30004C493C312068884213D04A4950312068CF
:101E400088420ED0474964312068884209D045490C
:101E500078312068884204D042498C312068884219
:101E600001D1012000E0002000B100BF022084F871
:101E7000350000BF002084F8340000BF20680568EA
:101E800039480540A068402802D1102106E02EE024
:101E9000A068802801D1C10100E00021E06841EA8A
:101EA000D001206941EAD001606941EAD001A0690E
:101EB00041EAD001E06941EAD001206A41EA10100C
:101EC00005432068056027492068401A1421B0FBAB
:101ED000F1F08000E0652046FEF74CFB074694F8E1
:101EE0005C0000F01F0101208840786006E040207F
:101EF0006065032084F8350001202BE61549206831
:101F000088427FD013491831206888427AD011491D
:101F100030312068884275D00E49483120688842A7
:101F200070D00C496031206888426BD00949783103
:101F30002068884266D0074990312068884261D085
:101F40000449A831206888425CD00349206888424F
:101F500058D00BE010000240100402403F8010FEF9
:101F60000010005C085402580F00FEFF3B49183176
:101F70002068884246D0394930312068884241D0B3
:101F800036494831206888423CD034496031206865
:101F9000884237D0314978312068884232D02F4981
:101FA0009031206888422DD02C49A8312068884281
:101FB00028D02B492068884224D029491431206830
:101FC00088421FD026492831206888421AD02449E7
:101FD0003C312068884215D0214950312068884220
:101FE00010D01F496431206888420BD01C497831D9
:101FF0002068884206D01A498C312068884200E067
:1020000000E001D1012000E0002000B32046FEF7EF
:1020100027FBA068802801D1002060602079216E14
:102020000860D4E919104860606860B160680828E9
:1020300009D82046FEF776FB0020E16E0860D4E95F
:102040001C10486003E00020E06620676067002005
:102050006065012084F8350000207BE51004024013
:102060000854025870B5044600F01AF90646254691
:10207000681C10B104480078054400BF00F010F956
:10208000801BA842FAD370BD34000024F8B5024684
:102090000B4600216F4DD7E001278F401E6806EAEE
:1020A0000704002C72D01E7906F00306012E04D01E
:1020B0001E7906F00306022E13D190684F00032606
:1020C000BE40B0434F00DE68BE4030439060506871
:1020D00001268E40B0431E79C6F300168E40304371
:1020E00050601E7906F00306032E09D0D0684F0019
:1020F0000326BE40B0434F009E68BE403043D060D0
:102100001E7906F00306022E13D1CF0802F1200635
:1021100056F827004E07F70E0F26BE40B0434F0774
:10212000FF0E1E69BE403043CF0802F1200646F87C
:10213000270010684F000326BE40B0431E7906F00A
:1021400003064F00BE40304310605E6806F4403620
:10215000002E78D000BF404E366846F002063E4F53
:102160003E603E46366806F00206009600BF00BF9D
:102170003A4E8F0856F827008E07370F0F26BE40BD
:10218000B043374EB24202D100262EE05BE0354E1E
:10219000B24201D1012628E0334EB24201D10226DB
:1021A00023E0324EB24201D103261EE0304EB2424D
:1021B00001D1042619E02F4EB24201D1052614E0C8
:1021C0002D4EB24201D106260FE02C4EB24201D173
:1021D00007260AE02A4EB24201D1082605E0294E20
:1021E000B24201D1092600E00A268F073F0FBE4008
:1021F00030431A4E8F0846F827004FF0B04630683B
:10220000A0435E6806F4801606B120434FF0B04646
:1022100030607068A0435E6806F4001606B1204383
:102220004FF0B04670606868A0435E6806F4003600
:1022300006B1204368602868A0435E6806F48036D3
:1022400006B120432860491C1E68CE40002E7FF452
:1022500023AFF8BD80000058F44402580804005829
:10226000000002580004025800080258000C0258EE
:10227000001002580014025800180258001C02589E
:1022800000200258002402580AB1816101E00B04C9
:102290008361704701480068000C70470010005CC3
:1022A00001480068704700002C00002403480068C3
:1022B0000349097808440149086070472C0000244C
:1022C0003400002410B5032000F0C8F901F0DAFC56
:1022D00010490968C1F303210F4A515C01F01F0145
:1022E00020FA01F40B48006800F00F001146085C6A
:1022F00000F01F0024FA00F0084908600848046054
:102300000F2000F00FF808B1012010BD00F042F9D5
:102310000020FAE7184402586A6900083C000024CB
:102320003800002470B504461148007808B901202F
:1023300070BD0F4800784FF47A71B1FBF0F00D4991
:102340000968B1FBF0F5284602F004FB08B1012052
:10235000EEE7102C07D200222146501E00F040F973
:102360000548046001E00120E2E70020E0E700000A
:1023700034000024380000243000002470B50446E6
:102380000CB9012070BD6068012803D0A06AB0F5C7
:10239000000F00D100BF4FF6FF716069884200D086
:1023A00000BF94F8360028B9002084F83500204694
:1023B00000F062F8022084F836002068C568606882
:1023C000012803D0A06AB0F5000F01D125F01E0549
:1023D0004FF6FF716069884202D04EF2C00085431B
:1023E00021480540D4E901010843216A0843616A94
:1023F0000843A16A08430543606818B9E169206988
:10240000084305436068012803D0A06AB0F5000FB7
:1024100003D1D4E90310084305434FF6FF71606907
:10242000884205D0D4E905100843E1690843054313
:102430002068C5600D492068884203D00C49206897
:10244000884205D1D4E90B0108432168486206E0BF
:1024500008492068884202D12168E06A4862012068
:1024600084F8360000208DE7FEF119FF00240040BB
:10247000002400580028005810B5B2B00446C0210E
:1024800002A8FDF7F4FF0F492068884218D14021C7
:102490000020CDE90210299002A800F065FB08B1E8
:1024A000FEF75BFA00BF0848006840F40070064978
:1024B00008600846006800F40070019000BF00BF8B
:1024C00032B010BD00240058F44402584178154A37
:1024D000116014490831096821F00101114A0832DC
:1024E0001160121F41681160017B0907C27A41EA3D
:1024F0000261827A41EAC241427B41EA8241827BA7
:1025000041EA4241C27B41EA0241427A41EA022168
:10251000027A41EA420102781143024A083211600C
:102520007047000098ED00E000BF00BF00BFBFF3A0
:102530005F8F00BF00BF00BF0548006820F48030F7
:1025400003490860002002497031086070470000AC
:1025500024ED00E040F001010D4A11600C49703992
:10256000096841F480310A4A703A116000BF00BF27
:1025700000BFBFF34F8F00BF00BF00BF00BF00BF51
:1025800000BFBFF36F8F00BF00BF00BF70470000E8
:1025900094ED00E008B500BF0648006840F0020076
:1025A000044908600846006800F00200009000BF7F
:1025B00000BF08BDF44402580146084600280DDB60
:1025C00000BF00BF00F01F0301229A4043099B0097
:1025D00003F1E023C3F8002100BF00BF00BF704734
:1025E0002DE9F05F80460D46164604F02DF90746AA
:1025F00039462A46334601F00700C0F1070ABAF10E
:10260000040F02D94FF0040A01E0C0F1070AD146D5
:1026100000F1040ABAF1070F02D24FF0000A01E0FC
:10262000A0F1030AD4464FF0010A0AFA09FAAAF106
:10263000010A0AEA020A0AFA0CFA4FF0010B0BFA35
:102640000CFBABF1010B0BEA030B4AEA0B0421462E
:10265000404604F001F9BDE8F09F000000BF00F023
:102660000702064B19684FF6FF031940044B0B4352
:1026700043EA0221014B196000BF70470CED00E0F6
:102680000000FA0570B5044615480068C0F38000E4
:1026900048B91348006800F00700A04201D00120AB
:1026A00070BD0020FCE70E48006820F007002043C2
:1026B0000B490860FFF7F4FD054607E0FFF7F0FD62
:1026C000401BB0F57A7F01D90120E9E704480838BA
:1026D0000068C0F340300028F0D00020E0E70000A0
:1026E0000C48025810B501F083FA05490968C1F396
:1026F0000211044A515C01F01F01C84010BD0000E6
:10270000204402586A69000870B50146844D2D685E
:1027100005F00303824D2D68C5F30530804D2D1D56
:102720002D68C5F300147E4D14352D68C5F3CC0516
:1027300015FB04F501EE105AB8EE411AF0EE410A0D
:1027400000286FD023B1012B4ED0022B6BD16BE050
:10275000734D283D2D68C5F340153DB3704D283DA0
:102760002D68C5F3C1066F4D25FA06F201EE102A59
:10277000F8EE411A01EE100AB8EE411A81EE812AF4
:102780009FED691AC0EE811A654D10352D68C5F3AD
:10279000080501EE105AB8EE411A31EE811AF7EE33
:1027A000001A31EE211A22EE010A1CE001EE100A95
:1027B000B8EE411ADFED5D1A81EE812A9FED5A1ABB
:1027C000C0EE811A564D10352D68C5F3080501EE8F
:1027D000105AB8EE411A31EE811AF7EE001A31EEB6
:1027E000211A22EE010A5BE001EE100AB8EE411A4E
:1027F000DFED4F1A81EE812A9FED4B1AC0EE811A50
:10280000474D10352D68C5F3080501EE105AB8EE96
:10281000411A31EE811AF7EE001A31EE211A22EE3A
:10282000010A3DE077E01DE001EE100AB8EE411A22
:102830009FED402AC2EE011A9FED3B1A80EE812ADD
:10284000374D10352D68C5F3080501EE105AB8EE66
:10285000411A32EE011AB7EE002A31EE021A21EEC9
:10286000810A1DE001EE100AB8EE411ADFED301AC0
:1028700081EE812A9FED2C1AC0EE811A284D103569
:102880002D68C5F3080501EE105AB8EE411A31EE75
:10289000811AF7EE001A31EE211A22EE010A00BF6A
:1028A00000BF1F4D10352D68C5F3462501EE105AA7
:1028B000B8EE411AF7EE001A31EE211AC0EE011AF5
:1028C000BCEEE11A81ED001A154D10352D68C5F3E7
:1028D000064501EE105AB8EE411AF7EE001A31EE35
:1028E000211AC0EE011ABCEEE11A81ED011A0C4D5D
:1028F00010352D68C5F3066501EE105AB8EE411A81
:10290000F7EE001A31EE211AC0EE011ABCEEE11A00
:1029100081ED021A03E000250D604D608D6070BDF1
:10292000284402580090D003000000460024744C54
:102930000024744A20BCBE4B70B50146844D2D68FE
:1029400005F00303824D2D68C5F30550804D2D1D04
:102950002D68C5F300247E4D1C352D68C5F3CC05CC
:1029600015FB04F501EE105AB8EE411AF0EE410ADB
:1029700000286FD023B1012B4ED0022B6BD16BE01E
:10298000734D283D2D68C5F340153DB3704D283D6E
:102990002D68C5F3C1066F4D25FA06F201EE102A27
:1029A000F8EE411A01EE100AB8EE411A81EE812AC2
:1029B0009FED691AC0EE811A654D18352D68C5F373
:1029C000080501EE105AB8EE411A31EE811AF7EE01
:1029D000001A31EE211A22EE010A1CE001EE100A63
:1029E000B8EE411ADFED5D1A81EE812A9FED5A1A89
:1029F000C0EE811A564D18352D68C5F3080501EE55
:102A0000105AB8EE411A31EE811AF7EE001A31EE83
:102A1000211A22EE010A5BE001EE100AB8EE411A1B
:102A2000DFED4F1A81EE812A9FED4B1AC0EE811A1D
:102A3000474D18352D68C5F3080501EE105AB8EE5C
:102A4000411A31EE811AF7EE001A31EE211A22EE08
:102A5000010A3DE077E01DE001EE100AB8EE411AF0
:102A60009FED402AC2EE011A9FED3B1A80EE812AAB
:102A7000374D18352D68C5F3080501EE105AB8EE2C
:102A8000411A32EE011AB7EE002A31EE021A21EE97
:102A9000810A1DE001EE100AB8EE411ADFED301A8E
:102AA00081EE812A9FED2C1AC0EE811A284D18352F
:102AB0002D68C5F3080501EE105AB8EE411A31EE43
:102AC000811AF7EE001A31EE211A22EE010A00BF38
:102AD00000BF1F4D18352D68C5F3462501EE105A6D
:102AE000B8EE411AF7EE001A31EE211AC0EE011AC3
:102AF000BCEEE11A81ED001A154D18352D68C5F3AD
:102B0000064501EE105AB8EE411AF7EE001A31EE02
:102B1000211AC0EE011ABCEEE11A81ED011A0C4D2A
:102B200018352D68C5F3066501EE105AB8EE411A46
:102B3000F7EE001A31EE211AC0EE011ABCEEE11ACE
:102B400081ED021A03E000250D604D608D6070BDBF
:102B5000284402580090D003000000460024744C22
:102B60000024744A20BCBE4B2DE9F04104460025E8
:102B7000A8464FF00062D4E900101140002013462F
:102B800059404040014331D1A06E48B1B0F5801F9B
:102B90000DD0B0F5001F11D0B0F5401F16D114E0D4
:102BA000F948006840F40030F749086010E002215D
:102BB00004F1080002F004FD054609E0022104F1D9
:102BC000280002F0AFFD054602E001E0012500BF4C
:102BD00000BF55B9EC482430006820F44010A16EC5
:102BE0000843E9492431086000E0A8464FF48073A7
:102BF000D4E90010194000205940404001432ED133
:102C0000A06D05281BD2DFE800F0030A1118190097
:102C1000DD48006840F40030DB49086011E0002125
:102C200004F1080002F0CCFC05460AE0002104F1A2
:102C3000280002F077FD054603E002E001E00125EF
:102C400000BF00BF55B9D0482430006820F007000D
:102C5000A16D0843CC492431086000E0A8464FF438
:102C60000073D4E90010194000205940404001434E
:102C700034D1E06D802818D003DC40B140281DD14C
:102C80000CE0C02818D0B0F5807F17D115E0BE4801
:102C9000006840F40030BC49086011E0002104F1F4
:102CA000080002F08DFC05460AE0002104F128002E
:102CB00002F038FD054603E002E001E0012500BF17
:102CC00000BF55B9B0482430006820F4E070E16DD1
:102CD0000843AD492431086000E0A8464FF4806302
:102CE000D4E900101940002059404040014339D137
:102CF000D4F8A800B0F5800F1AD004DC50B1B0F5BC
:102D0000001F1ED10DE0B0F5C00F18D0B0F5000FB8
:102D100017D115E09C48006840F400309A490860DB
:102D200011E0002104F1080002F04AFC05460AE027
:102D3000002104F1280002F0F5FC054603E002E062
:102D400001E0012500BF00BF5DB98F482C3000684D
:102D500020F46000D4F8A81008438B492C31086097
:102D600000E0A8464FF40062D4E9001011400020B2
:102D7000134659404040014339D1D4F8AC00B0F17A
:102D8000007F1AD004DC50B1B0F1807F1ED10DE07D
:102D9000B0F1407F18D0B0F1806F17D115E07A48BC
:102DA000006840F400307849086011E0002104F127
:102DB000080002F005FC05460AE0002104F12800A5
:102DC00002F0B0FC054603E002E001E0012500BF8F
:102DD00000BF5DB96C482C30006820F0E060D4F88A
:102DE000AC10084368492C31086000E0A8464FF059
:102DF0000073D4E9000118400021584049400843BD
:102E000028D1E06CA8B1102804D0202809D030289F
:102E100010D10DE05C48006840F400305A49086069
:102E20000AE0022104F1080002F0CAFB054603E0B3
:102E300002E001E0012500BF00BF55B95248203033
:102E4000006820F03000E16C08434F4920310860F1
:102E500000E0A8464FF48053D4E900101940002048
:102E600059404040014337D1206EB0F5005F1AD081
:102E700004DC50B1B0F5805F1ED10DE0B0F5405FCD
:102E800018D0B0F5804F17D115E03F48006840F4E6
:102E900000303D49086011E0002104F1080002F013
:102EA0008FFB05460AE0002104F1280002F03AFCFD
:102EB000054603E002E001E0012500BF00BF55B96F
:102EC00031482430006820F4E040216E08432E4948
:102ED0002431086000E0A8464FF40053D4E9001004
:102EE0001940002059404040014335D1606EB0F593
:102EF000403F1ED007DC68B1B0F5803F0BD0B0F585
:102F0000003F19D10EE0B0F5802F13D0B0F5A02FFF
:102F100012D110E012E0012104F1080002F050FB90
:102F200005460BE0012104F1280002F0FBFB0546F9
:102F300004E003E002E001E0012500BF00BF55B955
:102F400011482430006820F4E020616E08430E49E7
:102F50002431086000E0A8464FF48043D4E9000122
:102F60001840002158404940084337D1D4F8B000F8
:102F7000B0F1405F20D009DC78B1B0F1805F0DD0B6
:102F8000B0F1005F1BD110E02C440258B0F1804F2B
:102F900013D0B0F1A04F12D110E012E0012104F1E2
:102FA000080002F00DFB05460BE0012104F12800AA
:102FB00002F0B8FB054604E003E002E001E0012571
:102FC00000BF00BF4DB9FE48006820F0E040D4F8D3
:102FD000B0100843FA49086000E0A8464FF40042E8
:102FE000D4E90010114000201346594040400143ED
:102FF00029D1206FB0B1B0F1805F03D0B0F1005F94
:1030000011D108E0EE482C38006840F40030EC495B
:103010002C39086009E0012104F1080002F0D0FA1F
:10302000054602E001E0012500BF00BF55B9E448B4
:103030000838006820F04050216F0843E049083903
:10304000086000E0A8464FF08072D4E900101140FB
:10305000002013465940404001432AD1A06CB8B12A
:10306000012804D002280BD0032812D10FE0D44845
:103070002C38006840F40030D1492C3908600AE04F
:10308000022104F1080002F09BFA054603E002E089
:1030900001E0012500BF00BF55B9C9480C380068E0
:1030A00020F00300A16C0843C5490C39086000E01A
:1030B000A8464FF48002D4E90001104000211346D5
:1030C0005840494008437DD1BE48006840F48070B4
:1030D000BC490860FFF7E4F8064606E0FFF7E0F8B1
:1030E000801B642801D9032505E0B648006800F478
:1030F00080700028F2D000BF85BBB148183000684E
:1031000000F44070B4F8B41001F44071884213D058
:10311000AB481830006820F44077A94818300068A0
:1031200040F48030A649183108600846006820F451
:103130008030086008460760D4F8B400B0F5807F9E
:1031400015D1FFF7ADF8064609E0FFF7A9F8801B97
:1031500041F28831884202D9032507E038E09848D7
:1031600018300068C0F340000028EED000BF55BB07
:1031700000BFB4F8B40000F44070B0F5407F0ED149
:103180008F484838006820F47C518F4AD4F8B40046
:10319000104041EA10108A494839086007E0884821
:1031A0004838006820F47C508549483908608448D4
:1031B00018300068B4F8B410C1F30B01084380491B
:1031C000183101E005E001E0086002E0A84600E0F7
:1031D000A8460122D4E900011040002113465840BE
:1031E0004940084330D1E06F18281AD005DC48B1B7
:1031F000082808D0102817D10CE0202812D0282841
:1032000012D110E012E0012104F1080002F0D8F917
:1032100005460BE0012104F1280002F083FA05467F
:1032200004E003E002E001E0012500BF00BF55B962
:103230006348001F006820F03800E16F08436049D0
:10324000091F086000E0A8460222D4E900011040EE
:103250000021134658404940084329D1A06F062851
:1032600016D2DFE800F003040B12131412E0012160
:1032700004F1080002F0A4F905460BE0012104F175
:10328000280002F04FFA054604E003E002E001E006
:10329000012500BF00BF55B94948001F006820F054
:1032A0000700A16F08434649091F086000E0A846CF
:1032B0000423D4E900101940002059404040014344
:1032C00029D1D4F89400062816D2DFE800F00304D0
:1032D0000B12131412E0012104F1080002F070F93E
:1032E00005460BE0012104F1280002F01BFA054617
:1032F00004E003E002E001E0012500BF00BF4DB99A
:103300002F48006820F00700D4F8941008432C4997
:10331000086000E0A8462023D4E9000118400021FD
:1033200058404940084337D1D4F89000B0F1405F8D
:103330001ED007DC68B1B0F1805F0BD0B0F1005F48
:1033400019D10EE0B0F1804F13D0B0F1A04F12D1DF
:1033500010E012E0002104F1080002F031F9054606
:103360000BE0022104F1280002F0DCF9054604E03C
:1033700003E002E001E0012500BF00BF5DB9104895
:10338000001F006820F0E040D4F8901008430C497A
:10339000091F086000E0A8464023D4E90010194046
:1033A00000205940404001433CD1D4F89C00B0F586
:1033B000406F25D00EDCA0B1B0F5806F12D005E0D3
:1033C0005844025800480258FFFCFF0FB0F5006F48
:1033D00019D10EE0B0F5805F13D0B0F5A05F12D127
:1033E00010E012E0002104F1080002F0E9F80546BF
:1033F0000BE0022104F1280002F094F9054604E0F4
:1034000003E002E001E0012500BF00BF4DB9FE4826
:10341000006820F4E050D4F89C100843FA49086092
:1034200000E0A8468023D4E900101940002059404C
:103430004040014335D1D4F8A000B0F5C04F1ED0B4
:1034400007DC68B1B0F5005F0BD0B0F5804F19D143
:103450000EE0B0F5004F13D0B0F5204F12D110E0C0
:1034600012E0002104F1080002F0AAF805460BE082
:10347000022104F1280002F055F9054604E003E0BA
:1034800002E001E0012500BF00BF4DB9DE48006841
:1034900020F46040D4F8A0100843DB49086000E045
:1034A000A8460823D4E900101940002059404040A4
:1034B000014317D1D4F88400B0F5805F07D1022111
:1034C00004F1280002F02EF908B14FF00108CE48AF
:1034D000001F006820F44050D4F884100843CA4903
:1034E000091F08601023D4E900101940002059403A
:1034F0004040014315D1D4F89800B0F5807F07D142
:10350000022104F1280002F00DF908B14FF0010882
:10351000BD48006820F44070D4F898100843BA49B8
:1035200008604FF40022D4E9000110400021134646
:1035300058404940084327D1D4F8A40030B1B0F531
:10354000803F0AD0B0F5003F0FD10DE0002104F11B
:10355000080002F035F8054609E0022104F12800D0
:1035600002F0E0F8054602E001E0012500BF00BFDF
:103570004DB9A548006820F44030D4F8A4100843A1
:10358000A149086000E0A8464FF48023D4E9000177
:10359000184000215840494008432DD1D4F88800F4
:1035A000B0F5801F06D0B0F5001F0CD0B0F5401F5D
:1035B00011D10FE094482C38006840F40030924953
:1035C0002C39086009E0012104F1280002F0AAF872
:1035D000054602E001E0012500BF00BF5DB98A4851
:1035E000001F006820F44010D4F888100843864972
:1035F000091F086000E0A8464FF48032D4E90001BA
:1036000010400021134658404940084325D1206D01
:1036100018B1B0F5803F10D108E07B482C38006825
:1036200040F4003078492C39086008E0022104F1A8
:10363000080001F0C5FF054601E0012500BF00BFFD
:1036400055B971480C38006820F48030216D08436A
:103650006D490C39086000E0A8464FF00052D4E9EB
:10366000001011400020134659404040014307D14B
:10367000022104F1280002F055F808B14FF00108CA
:103680004FF40033D4E9000118400021584049406C
:10369000084329D1D4F88000A0B1B0F5807F06D0CE
:1036A000B0F5007F0CD0B0F5407F0CD109E0564852
:1036B0002C38006840F4003053492C39086004E08D
:1036C00003E002E001E0012500BF00BF5DB94E4804
:1036D000001F006820F44070D4F8801008434A4965
:1036E000091F086000E0A8464FF48012D4E90010DA
:1036F00011400020134659404040014309D142483F
:103700000838006820F00040616F08433E490839DE
:1037100008604FF08052D4E9001011400020134699
:103720005940404001430AD137484838006820F4E6
:103730008040D4F8B81008433349483908604FF442
:103740000012D4E9001011400020134659404040B7
:10375000014309D12C480838006820F08070E16EE0
:1037600008432949083908604FF08042D4E9001025
:1037700011400020134659404040014311D100BF81
:1037800021484838006820F400401F494839086043
:1037900008460068D4F8BC1008431B494839086043
:1037A00000BF4FF00042D4E9001011400020134642
:1037B00059404040014309D113480C38006820F0BB
:1037C0004050616D084310490C3908604FF4000205
:1037D000D4E90010114000201346594040400143F5
:1037E0000AD10948001F006820F44000D4F88C106A
:1037F00008430549091F086001230021606818403B
:1038000001224940504001E058440258014306D18A
:1038100004F1080001F0D4FE054605B1A8460222D5
:1038200000216068104049405040014307D1012108
:1038300004F1080001F0C4FE054605B1A8460423C2
:10384000002061681940042240405140084307D1DC
:10385000022104F1080001F0B3FE054605B1A846B7
:103860000823002160681840082249405040014365
:1038700006D104F1280001F055FF054605B1A84620
:10388000102200216068104049405040014307D198
:10389000012104F1280001F045FF054605B1A846C5
:1038A000202200206168114040405140084307D168
:1038B000022104F1280001F035FF054605B1A846B4
:1038C000B8F1000F02D10020BDE8F0810120FBE734
:1038D0002DE9F04104460D4614B90120BDE8F08100
:1038E000BD48006800F00F00A8420ED2BA48006838
:1038F00020F00F002843B84908600846006800F02F
:103900000F00A84201D00120E8E7207800F0040071
:1039100004280ED1B1492069096801F0700188427C
:1039200007D9AE48006820F0700021690843AB4910
:103930000860207800F00800082811D1A749091D67
:103940006069096801F07001884209D9A348001D27
:10395000006820F0700061690843A049091D0860F3
:10396000207800F01000102811D19C49091DA06991
:10397000096801F4E061884209D99848001D00688F
:1039800020F4E060A16908439449091D086020788B
:1039900000F02000202811D190490831E069096821
:1039A00001F07001884209D98C480830006820F085
:1039B0007000E1690843894908310860207800F007
:1039C000020002280ED18549E068096801F00F0164
:1039D000884207D98148006820F00F00E168084359
:1039E0007E490860207800F00100002850D07B4814
:1039F000006820F47060A168084378490860606836
:103A0000022807D1754818380068C0F34040F8B95B
:103A1000012063E76068032807D170481838006800
:103A2000C0F34060A0B9012058E76068012807D1C1
:103A30006A4818380068C0F3002048B901204DE7F3
:103A4000664818380068C0F3800008B9012045E7CF
:103A500062480838006820F00700616808435F4941
:103A600008390860FEF71CFC064608E0FEF718FC63
:103A7000801B41F28831884201D903202EE7574844
:103A80000838006800F038006168B0EBC10FEDD174
:103A9000207800F0020002280ED15049E068096841
:103AA00001F00F01884207D24C48006820F00F0057
:103AB000E1680843494908604748006800F00F0082
:103AC000A8420ED94448006820F00F00284342491C
:103AD00008600846006800F00F00A84201D00120ED
:103AE000FCE6207800F0040004280ED13B49206950
:103AF000096801F07001884207D23848006820F058
:103B000070002169084335490860207800F00800FA
:103B1000082811D13149091D6069096801F0700157
:103B2000884209D22D48001D006820F070006169AC
:103B300008432A49091D0860207800F01000102869
:103B400011D12649091DA069096801F4E061884284
:103B500009D22248001D006820F4E060A1690843F2
:103B60001E49091D0860207800F02000202811D18E
:103B70001A490831E069096801F07001884209D2E8
:103B800016480830006820F07000E16908431349C6
:103B90000831086000F076F810490968C1F3032184
:103BA0000F4A515C01F01F0120FA01F70B48006831
:103BB00000F00F001146085C00F01F0027FA00F02B
:103BC000084908600848076008480068FEF7AAFB33
:103BD0008046404682E60000002000521844025809
:103BE0006A6900083C0000243800002430000024EA
:103BF00010B500F047F80D490968C1F303210C4ADC
:103C0000515C01F01F0120FA01F40848006800F03F
:103C10000F001146085C00F01F0024FA00F005496F
:103C20000860054804600846006810BD1844025842
:103C30006A6900083C0000243800002400B5FFF742
:103C4000D7FF05490968C1F30211044A515C01F02C
:103C50001F01C84000BD00001C4402586A690008EA
:103C600000B5FFF7C5FF05490968C1F30221044A01
:103C7000515C01F01F01C84000BD00001C44025807
:103C80006A690008F0B5824E366806F0380636B12B
:103C9000082E15D0102E15D0182E7DD114E07C4E94
:103CA000103E3668C6F3401646B1794E103E36686F
:103CB000C6F3C107774E26FA07F000E07548E5E045
:103CC0007548E3E07548E1E0714E1836366806F055
:103CD00003046F4E18363668C6F305116C4E1C3659
:103CE000366806F001056A4E24363668C6F3CC06FF
:103CF00016FB05F601EE106AB8EE410A002971D0F4
:103D000024B1012C50D0022C6DD16DE0604E103EDC
:103D10003668C6F340163EB35D4E103E3668C6F3B5
:103D2000C1075C4E26FA07F301EE103AF8EE411A8D
:103D300001EE101AB8EE411A81EE812A9FED581A51
:103D4000C0EE011A524E20363668C6F3080601EE60
:103D5000106AB8EE411A31EE811AF7EE001A31EE10
:103D6000211A62EE010A1EE001EE101AB8EE411AA5
:103D7000DFED4C1A81EE812A9FED491AC0EE011A3F
:103D8000434E20363668C6F3080601EE106AB8EED8
:103D9000411A31EE811A00E076E0F7EE001A31EEBA
:103DA000211A62EE010A5BE001EE101AB8EE411A28
:103DB0009FED3D2AC2EE011A9FED391A80EE012ACD
:103DC000334E20363668C6F3080601EE106AB8EEA8
:103DD000411A32EE011AB7EE002A31EE021A61EEF4
:103DE000810A3DE04EE01DE001EE101AB8EE411AE6
:103DF000DFED2E1A81EE812A9FED291AC0EE011AFD
:103E0000234E20363668C6F3080601EE106AB8EE77
:103E1000411A31EE811AF7EE001A31EE211A62EEE4
:103E2000010A1DE001EE101AB8EE411A9FED1E2A9C
:103E3000C2EE011A9FED1A1A80EE012A144E2036A6
:103E40003668C6F3080601EE106AB8EE411A32EE83
:103E5000011AB7EE002A31EE021A61EE810A00BFA4
:103E600000BF0B4E20363668C6F34626721C01EEA4
:103E7000102AB8EE411AC0EE811ABCEEE11A11EE1A
:103E8000100A00E0002001E0034800BF00BFF0BDC1
:103E9000104402580090D00300093D0040787D0195
:103EA000000000460024744C0024744A20BCBE4B21
:103EB0002DE9F047044614B90120BDE8F0872078C9
:103EC00000F00100002870D0FA48006800F03808BF
:103ED000F8481830D0F80090B8F1100F06D0B8F1BB
:103EE000180F0FD109F0030002280BD1F148103848
:103EF0000068C0F3404000286AD06068002867D19D
:103F00000120DAE700BF6068B0F5803F08D1E948DA
:103F10001038006840F48030E649103908602EE01F
:103F2000606868B9E3481038006820F48030E149DF
:103F3000103908600846006820F4802008601EE000
:103F40006068B0F5A02F0DD1DA481038006840F451
:103F50008020D849103908600846006840F4803055
:103F600008600CE0D3481038006820F48030D14954
:103F7000103908600846006820F48020086000BFFF
:103F8000606898B1FEF78CF9054606E0FEF788F9FF
:103F9000401B642801D903208FE7C6481038006809
:103FA000C0F340400028F1D012E012E0FEF778F9AB
:103FB000054606E0FEF774F9401B642801D903208A
:103FC0007BE7BC4810380068C0F340400028F1D1BE
:103FD00000BF207800F00200022874D1B5480068C4
:103FE00000F03808B3481830D0F80090B8F1000F4E
:103FF00005D0B8F1180F56D109F00300D0BBAD4879
:1040000010380068C0F3800018B1E06808B90120DA
:1040100053E7A8481038006820F01900E168084309
:10402000A44910390860FEF73BF9054606E0FEF7A3
:1040300037F9401B022801D903203EE79D4810387C
:104040000068C0F380000028F1D000BFFEF722F91D
:1040500041F2030188421AD8206940280BD19548C3
:104060000C38006820F47C3040F4003091490C3961
:10407000086017E017E08F480C38006820F47C30A7
:10408000216940EA01308B490C3908600AE089480F
:104090000C38006820F0FE40217C40EA0160854930
:1040A0000C39086066E0E06888B382481038006820
:1040B00020F01900E16808437E4910390860FEF7D6
:1040C000EFF8054607E056E0FEF7EAF8401B022845
:1040D00001D90320F1E6774810380068C0F380006A
:1040E0000028F1D000BFFEF7D5F841F20301884265
:1040F0001AD8206940280BD16E480C38006820F48B
:104100007C3040F400306B490C39086017E017E050
:1041100068480C38006820F47C30216940EA01309E
:1041200064490C3908600AE062480C38006820F0E5
:10413000FE40217C40EA01605E490C39086019E0CC
:104140005C481038006820F001005A4910390860B6
:10415000FEF7A6F8054606E0FEF7A2F8401B022887
:1041600001D90320A9E6534810380068C0F3800045
:104170000028F1D100BF207800F0100010287CD179
:104180004C48006800F038084A481830D0F80090D1
:10419000B8F1080F06D0B8F1180F3DD109F00300AF
:1041A000012839D1434810380068C0F3002020B1FD
:1041B000E069802801D001207FE600BFFEF76AF8A1
:1041C00041F2030188421AD8206A20280AD13948CE
:1041D0000C38006820F0F84040F0804035490C3938
:1041E000086018E033480C38006820F0F84094F874
:1041F000201040EA81602F490C3908600BE02D48FF
:10420000001F006820F07C5094F8201040EA016004
:104210002849091F086066E0E06978B3254810382E
:10422000006840F08000234910390860FEF738F834
:10423000054606E0FEF734F8401B022801D90320AA
:104240003BE61C4810380068C0F300200028F1D07D
:1042500000BFFEF71FF841F2030188421CD8206A14
:1042600020280CD113480C38006820F0F84040F0AA
:10427000804010490C3908601AE035E01CE00D4818
:104280000C38006820F0F84094F8201040EA816073
:1042900008490C3908600BE00648001F006820F050
:1042A0007C5094F8201040EA01600249091F086020
:1042B00019E0000010440258FA48006820F080001D
:1042C000F8490860FDF7ECFF054606E0FDF7E8FF5A
:1042D000401B022801D90320EFE5F2480068C0F333
:1042E00000200028F2D100BF207800F00800082844
:1042F00036D16069D0B1EB487430006840F00100FD
:10430000E84974310860FDF7CBFF054606E0FDF78C
:10431000C7FF401B022801D90320CEE5E1487430D5
:104320000068C0F340000028F1D019E0DD48743087
:10433000006820F00100DB4974310860FDF7B0FF30
:10434000054606E0FDF7ACFF401B022801D903201B
:10435000B3E5D44874300068C0F340000028F1D1C0
:10436000207800F02000202830D1A069B8B1CD48D5
:10437000006840F48050CB490860FDF791FF054686
:1043800006E0FDF78DFF401B022801D9032094E5CC
:10439000C4480068C0F340300028F2D016E0C1489D
:1043A000006820F48050BF490860FDF779FF05469A
:1043B00006E0FDF775FF401B022801D903207CE5CC
:1043C000B8480068C0F340300028F2D1207800F0EF
:1043D000040004287DD1B448006840F48070B249DC
:1043E0000860FDF75DFF054606E0FDF759FF401B3D
:1043F000642801D9032060E5AB48006800F48070B0
:104400000028F2D000BFA068012808D1A54870306C
:10441000006840F00100A349703108602DE0A068F9
:1044200068B9A0487030006820F001009D497031E3
:1044300008600846006820F0040008601DE0A068DD
:1044400005280DD197487030006840F00400954968
:10445000703108600846006840F0010008600CE018
:1044600090487030006820F001008E49703108607B
:104470000846006820F00400086000BFA068A0B1F2
:10448000FDF70EFF054608E0FDF70AFF401B41F26D
:104490008831884201D903200FE5824870300068D6
:1044A000C0F340000028EFD013E0FDF7F9FE054609
:1044B00008E0FDF7F5FE401B41F28831884201D942
:1044C0000320FAE4774870300068C0F34000002809
:1044D000EFD1606A00287DD072481030006800F08B
:1044E0003800182877D0606A022875D16D480068B6
:1044F00020F080706B490860FDF7D2FE054606E0AB
:10450000FDF7CEFE401B022801D90320D5E4654803
:104510000068C0F340600028F2D100BFD4E90A105F
:1045200041EA00105F492831096840F2F3329143B3
:1045300008435C4928310860208E401EC0F3080003
:10454000616B491E4FF47E4202EA41210843218FEC
:10455000491ED20102EA014108433C21095D491E7E
:10456000120202EA016108434E493031086000BF7F
:10457000081F006820F00100091F08604948343016
:1045800000684FF6F8718843A16C40EAC1004549C4
:104590003431086043482C30006820F00C00216C56
:1045A000084340492C3108600846006820F00200AA
:1045B000616C08433B492C3108600846006840F4B0
:1045C000803008600846006840F400300860084603
:1045D000006802E093E038E01FE040F480200860CB
:1045E0000846006840F0010008602E48006840F06E
:1045F00080702C490860FDF753FE054606E0FDF784
:104600004FFE401B022801D9032056E425480068CC
:10461000C0F340600028F2D071E02248006820F02A
:10462000807020490860FDF73BFE054606E0FDF777
:1046300037FE401B022801D903203EE419480068D8
:10464000C0F340600028F2D159E0164828300768CE
:10465000144830300668606A012821D007F0030151
:10466000A06A81421CD1C7F30511E06A884217D1C4
:10467000C6F30801206B401E814211D1606B401EC1
:10468000C6F3462188420BD1A06B401EC6F30641FB
:10469000884205D1E06B401EC6F30661884205D012
:1046A00001200AE4004402580048025815480068F6
:1046B000C0F3CC07A06CB84221D01248083800687B
:1046C00020F001000F4908390860FDF7E9FD0546B3
:1046D00000BFFDF7E5FD401BFBD00A4800684FF620
:1046E000F8718843A16C40EAC1000649086005489A
:1046F0000838006840F001000249083908600020CD
:104700004AE400003444025870B504460CB9012054
:1047100070BD606A00B900BF0021A16263492068D2
:1047200088420CD062492068884208D061492068DC
:10473000884204D0E0680F2801D90120E8E720462C
:1047400001F0A2F8054659492068884209D0584925
:104750002068884205D057492068884201D0082D3A
:104760000DD852492068884207D0514920688842B4
:1047700003D050492068884203D1102D01D901206F
:10478000C6E794F8810028B9002084F8800020460C
:1047900000F092F8022084F881002068006820F080
:1047A0000100216808602068806800F4F816A0699C
:1047B000B0F1806F11D16068B0F5800F01D1A06BAE
:1047C00028B1606848B9A06BB0F1805F05D120685E
:1047D000006840F4805021680860606800F4800040
:1047E000B0F5800F0BD1E068072808D32068006877
:1047F00020F48070216D08432168086005E020687E
:10480000006820F4807021680860A16AE0690843AC
:104810003043E16B0843E168084321688860616ABE
:10482000606B0843A16B0843A169084321690843F1
:1048300061690843216A084361680843E16C0843E1
:10484000A1680843A16C0843A16D08432168C860B2
:10485000606878B92068806820F4C05040F4006037
:10486000216888602068806820F4C06040F480601F
:10487000216888602068006D20F0010021680865CB
:10488000606800F48000B0F5800F07D12068C06830
:1048900020F00040616D08432168C8600020C4F822
:1048A0008400012084F88100002031E700300140BD
:1048B00000380040003C004010B5B8B00446142158
:1048C00032A8FBF7D4FDC02102A8FBF7D0FD1E499A
:1048D0002068884235D181140020CDE902101A9059
:1048E00002A8FEF741F908B1FCF737F800BF1748F6
:1048F000006840F48040154908600846006800F4EC
:104900008040019000BF00BF00BF10480838006819
:1049100040F480700D49083908600846006800F4CA
:104920008070019000BF00BF0E20329002203390B3
:104930000020349035900520369032A90448FDF7C8
:10494000A5FB38B010BD000000380040E844025814
:104950000020025870B504462546681EB0F1807FDD
:1049600001D301200FE0681E4FF0E02148610F21C4
:104970004FF0FF3001F070FF00204FF0E021886120
:1049800007200861002070BD30B502460B4600BF0D
:1049900092F83C00012801D1022030BD012082F8AC
:1049A0003C0000BF022082F83D001068416810689A
:1049B0008468214D1068A84203D0204D1068A84299
:1049C00003D121F470015868014321F07001186887
:1049D000014310684160184D1068A8421BD0106850
:1049E000B0F1804F17D0164D1068A84213D0154D66
:1049F0001068A8420FD0144D1068A8420BD00F4D7C
:104A00001068A84207D0114D1068A84203D0104D7D
:104A10001068A84205D124F0800498680443106807
:104A20008460012082F83D0000BF002082F83C0035
:104A300000BF00BFB1E700000000014000040140DA
:104A40000004004000080040000C00400018004036
:104A50000040014010B504460CB9012010BD94F887
:104A60003D0028B9002084F83C00204600F02AF8D8
:104A7000022084F83D00211D206801F015F8012076
:104A800084F8480000BF84F83E0001213F20015512
:104A90004020015541200155422001554320015538
:104AA00000BF00BF012084F8440045200155462086
:104AB00001554720015500BF012084F83D0000202A
:104AC000CCE7000010B586B00446002002900390A9
:104AD000049005902068B0F1804F43D100BF224878
:104AE000006840F00100204908600846006800F0B6
:104AF0000100019000BF00BF1C481D49086016203E
:104B0000486040211A4881600021C16001614FF472
:104B100080514161890081618911C1610021016277
:104B20004162FDF70FF808B1FBF717FF062002906E
:104B3000002003908DF8100001208DF811000590E1
:104B400002A90B48FBF71EFF08B1FBF706FF00BFE9
:104B500007482062846300BF0648006840F4007084
:104B60000449086006B010BDE84402581000024035
:104B70004C01002400080240014691F83D00012844
:104B800001D001207047022081F83D001C4B0868CD
:104B900098421BD00868B0F1804F17D0194B0868B5
:104BA000984213D0184B086898420FD0174B0868EA
:104BB00098420BD0164B0868984207D0154B0868EE
:104BC000984203D0144B0868984210D10868806856
:104BD000124B00EA0302062A0FD0B2F5803F0CD038
:104BE0000868006840F001000B68186005E008687C
:104BF000006840F001000B6818600020C2E7000068
:104C0000000001400004004000080040000C00408B
:104C1000000401400018004000400140070001006E
:104C20002DE9F04104460D46002700BF94F83C00F2
:104C3000012802D10220BDE8F081012084F83C0067
:104C400000BF022084F83D00206886684048064086
:104C500026F47F46206886602868702826D00CDC01
:104C600000F00F01002966D10011072863D2DFE8A8
:104C700000F0555657584B374100B0F1101F52D035
:104C800009DCB0F5805F10D0B0F5005F1BD0B0F547
:104C9000801F50D146E0A0F580102038002843D076
:104CA000102842D0202846D140E046E0D5E9021342
:104CB0006A68206800F062FF2068866846F0770620
:104CC0002068866039E0D5E902136A68206800F040
:104CD00055FF2068806840F48040216888602CE09F
:104CE000EA686968206801F015F95021206800F031
:104CF00051FF22E0EA686968206801F01EF960212E
:104D0000206800F047FF18E0EA686968206801F051
:104D100001F94021206800F03DFF0EE000BF00BF18
:104D200000BF00BF00BF00BF00BF00BF29682068F0
:104D300000F030FF01E0012700BF00BF012084F830
:104D40003D0000BF002084F83C0000BF384672E7F9
:104D500088FFCEFF10B586B00446142101A8FBF7EA
:104D600086FB2068B0F1804F1AD100BF0D48006863
:104D700040F001000B4908600846006800F001009F
:104D8000009000BF00BF042001900220029000208C
:104D9000039004900120059001A90348FDF776F9DE
:104DA00006B010BDE0440258000002582DE9F04161
:104DB00004460D461646002700BF94F83C00012823
:104DC00002D10220BDE8F081012084F83C0000BF40
:104DD0000C2E51D005DC4EB1042E1ED0082E7AD1F7
:104DE00033E0102E60D0142EF9D175E029462068EA
:104DF00000F0DCFE2068806940F0080021688861CE
:104E00002068806920F0040021688861206880693A
:104E1000296908432168886178E02946206800F004
:104E20001BFF2068806940F4006021688861206869
:104E3000806920F480602168886120688069296920
:104E400040EA01202168886160E02946206800F07E
:104E50005DFF2068C06940F008002168C8612068D3
:104E6000C06920F004002168C8612068C069296910
:104E700008432168C86149E02946206800F0A0FF86
:104E80002068C06940F400602168C8612068C0697A
:104E900020F480602168C8612068C069296940EAFF
:104EA00001202168C86131E02946206800F0C2FF76
:104EB0002068406D40F00800216848652068406D1A
:104EC00020F00400216848652068406D2969084386
:104ED000216848651AE017E02946206800F0E2FFE3
:104EE0002068406D40F40060216848652068406D8E
:104EF00020F48060216848652068406D296940EA97
:104F000001202168486501E0012700BF00BF00BF04
:104F1000002084F83C0000BF384653E710B5044633
:104F20000CB9012010BD94F83D0028B9002084F888
:104F30003C00204600F029F8022084F83D00211DA5
:104F4000206800F0B1FD012084F8480000BF84F81B
:104F50003E0001213F2001554020015541200155CF
:104F6000422001554320015500BF00BF012084F8B5
:104F7000440045200155462001554720015500BFFA
:104F8000012084F83D000020CCE77047014600BFB7
:104F900091F88400012801D102207047012081F896
:104FA000840000BF2420C1F88800086802680868EF
:104FB000006820F001000B68186022F00052002009
:104FC0004866086802602020C1F8880000BF002001
:104FD00081F8840000BF00BFDFE770B504460D46CE
:104FE00000BF94F88400012801D1022070BD012087
:104FF00084F8840000BF2420C4F888002068066874
:105000002068006820F0010021680860206880683E
:1050100020F06060284321688860204600F0A2FFED
:10502000206806602020C4F8880000BF002084F8B3
:10503000840000BF00BFD9E770B504460D4600BF2D
:1050400094F88400012801D1022070BD012084F869
:10505000840000BF2420C4F8880020680668206807
:10506000006820F00100216808602068806820F056
:105070006040284321688860204600F073FF206864
:1050800006602020C4F8880000BF002084F8840057
:1050900000BF00BFD9E710B504460CB9012010BD10
:1050A000A06900B100E000BFD4F8880028B9002052
:1050B00084F88400204600F02BF82420C4F88800EF
:1050C0002068006820F0010021680860A06A10B123
:1050D000204600F073FF204601F098F8012800D127
:1050E000DDE72068406820F490402168486020682F
:1050F000806820F02A00216888602068006840F0FD
:10510000010021680860204600F0D4FFC7E70000D6
:1051100010B5BCB00446142136A8FBF7A8F900204E
:105120003290339034903590C02102A8FBF79FF95C
:105130004549206888427DD102210020CDE9021036
:10514000209002A8FDF710FD08B1FBF706FC00BF98
:105150003E48006840F400203C490860084600686A
:1051600000F40020019000BF00BF00BF374808389E
:10517000006840F4807035490839086008460068C6
:1051800000F48070019000BF00BF00BF08460068B7
:1051900040F0010008600846006800F0010001903E
:1051A00000BF00BF4FF400703690022037900020FF
:1051B0003890399008203A9036A92548FCF766FFC8
:1051C0000120369002203790002038903990082036
:1051D0003A9036A91F48FCF759FF1F481F4908603D
:1051E0004020486040211D4881600021C1604FF48B
:1051F000806101610021416181614FF48071C16171
:10520000002101624162FCF79DFC08B1FBF7A5FBA0
:1052100004203290C003339001208DF8D00000208C
:105220008DF8D1000120359032A90C48FBF7AAFB7C
:1052300018B100E006E0FBF790FB00BF0748E0670D
:10524000846300BF3CB010BD004C0040E8440258ED
:105250000020025800000258280002405802002492
:1052600000BFFEE71FB50020009001900290039060
:10527000FDF75AF901208DF8000000208DF801009B
:1052800001901F208DF8080087208DF8090000206C
:105290008DF80A008DF80B0001208DF80C008DF8B8
:1052A0000D0000208DF80E008DF80F006846FDF708
:1052B0000DF90420FDF74EF91FBD000008B500BF31
:1052C0001248006840F00100104908600846006874
:1052D00000F00100009000BF00BF002211460B202B
:1052E000FDF77EF90B20FDF767F9002211460C202F
:1052F000FDF776F90C20FDF75FF9002211466620D4
:10530000FDF76EF96620FDF757F908BDD84402583D
:1053100000B587B0142102A8FBF7A9F800BF3248F6
:10532000006840F48070304908600846006800F466
:105330008070019000BF00BF00BF0846006840F0C9
:10534000010008600846006800F00100019000BFFD
:1053500000BF00BF0846006840F00400086008462F
:10536000006800F00400019000BF00BF00BF0846C5
:10537000006840F0800008600846006800F0800087
:10538000019000BF00BF00BF0846006840F0020067
:1053900008600846006800F00200019000BF00BFEE
:1053A000002240F201111148FCF76EFF0022022199
:1053B0000F48FCF769FF40F20110029001200390B2
:1053C00000200490059002A90848FCF75FFE022027
:1053D00002900120039000200490059002A9044847
:1053E000FCF754FE07B000BDE0440258002002580C
:1053F0000004025810B50B480B49086000204860B3
:105400000021094881604FF6FF714161002101626E
:1054100041628162C1620163FCF7B0FF08B1FBF732
:105420009CFA10BD002400584000002410B5164816
:10543000164908604FF480004860002113488160DD
:105440001F21C1600021016141614FF080618161D4
:105450004FF04051C1610021016241628162C1622D
:105460004FF08041416300218163C1630164416465
:105470008164C164016541658165FFF745F908B143
:10548000FBF76BFA10BD00000038004078000024E4
:1054900000B58FB000200B900C900D900E900890EE
:1054A00009900A901C2101A8FAF7E1FF4FF0804013
:1054B00024490860EF20486000212248816040F2C2
:1054C000E731C1600021016180218161FFF7C2FAEB
:1054D00008B1FBF742FA4FF480500B900BA9194822
:1054E000FFF79EFB08B1FBF738FA1648FFF716FDE9
:1054F00008B1FBF732FA002008900A9008A9114879
:10550000FFF742FA08B1FBF728FA60200190C720A4
:105510000290002003900590002201A90948FFF79E
:1055200045FC08B1FBF719FA082201A90548FFF765
:105530003DFC08B1FBF711FA0248FFF70BFC0FB076
:1055400000BD00000001002410B51848184908608B
:105550004FF4E1304860002115488160C16001616D
:105560000C21416100218161C16101624162002021
:105570000F4988620846FFF78EFD08B1FBF7EDF989
:1055800000210B48FFF758FD08B1FBF7E6F90021B1
:105590000748FFF722FD08B1FBF7DFF90448FFF7E2
:1055A000F5FC08B1FBF7D9F910BD0000004C004034
:1055B000C401002400BFFEE700BFFEE77047000003
:1055C0002DE9F04104460E4600275548006800F0DA
:1055D0000300032802D10120BDE8F081504828389B
:1055E000006820F080604E4928390860FCF758FEBA
:1055F000054606E0FCF754FE401B022801D90320B3
:10560000EAE7474828380068C0F3C0600028F1D1B5
:1056100000BF4348006820F47C30216840EA013034
:105620003F490860A088401EC0F30800A168491ED9
:105630004FF47E4202EA41210843A189491ED2016A
:1056400002EA01410843217C491E120202EA01617B
:10565000084333491031086000BF3148001D00681D
:1056600020F0C000616908432D49091D0860084603
:10567000006820F02000A16908432949091D08603D
:105680000846006820F010000860254814300068C3
:105690004FF6F8718843E16940EAC10020491431AE
:1056A00008601F48001D006840F010001C49091DDB
:1056B00008602EB90846006840F40020086012E037
:1056C000012E08D11648001D006840F480101449CE
:1056D000091D086007E01248001D006840F4001032
:1056E0000F49091D08600E482838006840F08060A6
:1056F0000B4928390860FCF7D3FD054606E0FCF7A6
:10570000CFFD401B022801D9032065E70448283853
:105710000068C0F3C0600028F1D038465CE70000A4
:10572000284402582DE9F04104460E46002755480A
:10573000006800F00300032802D10120BDE8F081D9
:1057400050482838006820F080504E4928390860B9
:10575000FCF7A6FD054606E0FCF7A2FD401B02286B
:1057600001D90320EAE7474828380068C0F34070B1
:105770000028F1D100BF4348006820F07C702188E8
:1057800040EA01503F490860A088401EC0F308006D
:10579000A168491E4FF47E4202EA41210843A189D3
:1057A000491ED20102EA01410843217C491E12022E
:1057B00002EA0161084333491831086000BF3148EB
:1057C000001D006820F44060616908432D49091DEF
:1057D00008600846006820F40070A1690843294960
:1057E000091D08600846006820F48070086025489C
:1057F0001C3000684FF6F8718843E16940EAC10047
:1058000020491C3108601F48001D006840F480706A
:105810001C49091D08602EB90846006840F4800044
:10582000086012E0012E08D11648001D006840F4FF
:1058300000001449091D086007E01248001D0068B7
:1058400040F080700F49091D08600E482838006834
:1058500040F080500B4928390860FCF721FD0546CF
:1058600006E0FCF71DFD401B022801D9032065E777
:10587000044828380068C0F340700028F1D038464A
:105880005CE700002844025810B501460124C86BAB
:1058900004EB5013C868421CD01DC20802FB03F081
:1058A00010BD704710B5FCF701FD10BD00B59DB0EF
:1058B0004C210AA8FAF7DBFD202102A8FAF7D7FD50
:1058C0000220FCF7DFFE00BF002001902A4800689C
:1058D00040F44040284908600846006800F4404011
:1058E00001902648006840F00100244908600846FD
:1058F000006800F00100019000BF00BF00BF1E481B
:10590000006800F40050B0F5005FF8D101200A9063
:1059100000040B900220139002211491052115918F
:10592000C021169102211791052118910221199188
:1059300008211A9100211B911C910AA8FEF7B8FAC0
:1059400008B1FBF70AF83F200290032003900020E3
:1059500004900820059040200690079000010890D0
:1059600040200990042102A8FDF7B2FF08B1FAF720
:10597000F4FF1DB000BD0000184802582C04005868
:105980003F48006840F470003D4908603D480068A9
:1059900000F00F00072806D23A48006820F00F00F8
:1059A000C01D384908603848006840F00100364999
:1059B00008600020344910310860334800683349DA
:1059C0000840314908602F48006800F00F000728A0
:1059D00006D92C48006820F00F00C01D2949086036
:1059E0000020294918310860091D0860091D086058
:1059F00027482549283108602648091D086026489F
:105A0000091D08600020091D08602348091D086061
:105A10000020091D08602048091D08600020091D9C
:105A200008601948006820F48020174908600020A9
:105A3000154960310860194800686FF30F00B0F134
:105A4000005F02D20120164908600F48D430006878
:105A500000F4805098B90C48D430006840F480506D
:105A60000949D431086043F2D2000E490860064863
:105A7000D430006820F480500349D4310860704766
:105A800088ED00E000200052004402587FEDF6EA65
:105A9000000202020000FF01800201010010005C10
:105AA000088100510040005210B502682B4B98420B
:105AB0000ED0B0F1804F0BD0294B984208D0294B23
:105AC000984205D0284B984202D0284B984203D1E7
:105AD00022F070024B681A43204B984217D0B0F165
